{"abi":[{"type":"constructor","inputs":[],"stateMutability":"nonpayable"},{"type":"function","name":"BAUTI","inputs":[],"outputs":[{"name":"","type":"address","internalType":"address"}],"stateMutability":"view"},{"type":"function","name":"JERRYTHEKID","inputs":[],"outputs":[{"name":"","type":"address","internalType":"address"}],"stateMutability":"view"},{"type":"function","name":"addRekt","inputs":[{"name":"targets","type":"address[]","internalType":"address[]"}],"outputs":[],"stateMutability":"nonpayable"},{"type":"function","name":"addWhitelisted","inputs":[{"name":"account","type":"address","internalType":"address"}],"outputs":[],"stateMutability":"nonpayable"},{"type":"function","name":"executeRemoval","inputs":[{"name":"id","type":"uint256","internalType":"uint256"}],"outputs":[],"stateMutability":"nonpayable"},{"type":"function","name":"getProposal","inputs":[{"name":"id","type":"uint256","internalType":"uint256"}],"outputs":[{"name":"proposer","type":"address","internalType":"address"},{"name":"executed","type":"bool","internalType":"bool"},{"name":"targets","type":"address[]","internalType":"address[]"}],"stateMutability":"view"},{"type":"function","name":"isRekt","inputs":[],"outputs":[{"name":"","type":"address[]","internalType":"address[]"}],"stateMutability":"view"},{"type":"function","name":"isWhitelisted","inputs":[{"name":"","type":"address","internalType":"address"}],"outputs":[{"name":"","type":"bool","internalType":"bool"}],"stateMutability":"view"},{"type":"function","name":"proposalCount","inputs":[],"outputs":[{"name":"","type":"uint256","internalType":"uint256"}],"stateMutability":"view"},{"type":"function","name":"proposeRemoval","inputs":[{"name":"targets","type":"address[]","internalType":"address[]"}],"outputs":[{"name":"id","type":"uint256","internalType":"uint256"}],"stateMutability":"nonpayable"},{"type":"function","name":"removeWhitelisted","inputs":[{"name":"account","type":"address","internalType":"address"}],"outputs":[],"stateMutability":"nonpayable"},{"type":"event","name":"AddedRekt","inputs":[{"name":"account","type":"address","indexed":true,"internalType":"address"}],"anonymous":false},{"type":"event","name":"RemovalExecuted","inputs":[{"name":"id","type":"uint256","indexed":true,"internalType":"uint256"},{"name":"executor","type":"address","indexed":true,"internalType":"address"}],"anonymous":false},{"type":"event","name":"RemovalProposed","inputs":[{"name":"id","type":"uint256","indexed":true,"internalType":"uint256"},{"name":"proposer","type":"address","indexed":true,"internalType":"address"},{"name":"targets","type":"address[]","indexed":false,"internalType":"address[]"}],"anonymous":false},{"type":"event","name":"RemovedRekt","inputs":[{"name":"account","type":"address","indexed":true,"internalType":"address"}],"anonymous":false},{"type":"event","name":"WhitelistUpdated","inputs":[{"name":"account","type":"address","indexed":true,"internalType":"address"},{"name":"status","type":"bool","indexed":false,"internalType":"bool"}],"anonymous":false},{"type":"error","name":"AlreadyExecuted","inputs":[]},{"type":"error","name":"CannotSelfExecute","inputs":[]},{"type":"error","name":"NotWhitelisted","inputs":[]},{"type":"error","name":"ProposalNotFound","inputs":[]}],"bytecode":{"object":"0x6080604052348015600e575f80fd5b50602c739e8680dbbca1127add812abe209a10e621b385df6001604d565b604973da1b9dfa299d655135c1ecdc4f0b4c9aed9a7f456001604d565b60a9565b6001600160a01b0382165f8181526020818152604091829020805460ff191685151590811790915591519182527ff93f9a76c1bf3444d22400a00cb9fe990e6abe9dbb333fda48859cfee864543d910160405180910390a25050565b610a86806100b65f395ff3fe608060405234801561000f575f80fd5b50600436106100a6575f3560e01c80635be742ed1161006e5780635be742ed1461015d578063b9345e6714610170578063b93e4bd514610183578063c7f758a81461019e578063da35c664146101c0578063e611d9ec146101c9575f80fd5b806310154bad146100aa578063291d9549146100bf5780633af32abf146100d257806356243f8c14610109578063583b2b4f1461012a575b5f80fd5b6100bd6100b8366004610889565b6101de565b005b6100bd6100cd366004610889565b61021b565b6100f46100e0366004610889565b5f6020819052908152604090205460ff1681565b60405190151581526020015b60405180910390f35b61011c6101173660046108a9565b610254565b604051908152602001610100565b610145739e8680dbbca1127add812abe209a10e621b385df81565b6040516001600160a01b039091168152602001610100565b6100bd61016b366004610918565b610367565b6100bd61017e3660046108a9565b6104ac565b61014573da1b9dfa299d655135c1ecdc4f0b4c9aed9a7f4581565b6101b16101ac366004610918565b610523565b60405161010093929190610972565b61011c60045481565b6101d16105b7565b60405161010091906109a6565b335f9081526020819052604090205460ff1661020d57604051630b094f2760e31b815260040160405180910390fd5b610218816001610617565b50565b335f9081526020819052604090205460ff1661024a57604051630b094f2760e31b815260040160405180910390fd5b610218815f610617565b335f9081526020819052604081205460ff1661028357604051630b094f2760e31b815260040160405180910390fd5b5060048054600181019091555f81815260056020526040812080546001600160a01b031916331781559083905b8181101561031a57826001018686838181106102ce576102ce6109b8565b90506020020160208101906102e39190610889565b8154600180820184555f93845260209093200180546001600160a01b0319166001600160a01b0392909216919091179055016102b0565b50336001600160a01b0316837f27b11b4ecd55b806be499c633f03d26af2b0c5f0778adbe45c8e7be4ea6f283387876040516103579291906109cc565b60405180910390a3505092915050565b335f9081526020819052604090205460ff1661039657604051630b094f2760e31b815260040160405180910390fd5b5f81815260056020526040902080546001600160a01b03166103cb5760405163635e873760e01b815260040160405180910390fd5b8054336001600160a01b03909116036103f7576040516303a6f8c760e21b815260040160405180910390fd5b8054600160a01b900460ff161561042157604051630dc1019760e01b815260040160405180910390fd5b805460ff60a01b1916600160a01b17815560018101545f5b8181101561047a57610472836001018281548110610459576104596109b8565b5f918252602090912001546001600160a01b0316610673565b600101610439565b50604051339084907f70bcdc2ba41f49b4e1c1d73bdf4002a4d011c1ab25f9a0109b382ad3de6c323b905f90a3505050565b335f9081526020819052604090205460ff166104db57604051630b094f2760e31b815260040160405180910390fd5b805f5b8181101561051d576105158484838181106104fb576104fb6109b8565b90506020020160208101906105109190610889565b6107b5565b6001016104de565b50505050565b5f818152600560209081526040808320805460018201805484518187028101870190955280855286956060956001600160a01b03851694600160a01b900460ff16939290918391908301828280156105a257602002820191905f5260205f20905b81546001600160a01b03168152600190910190602001808311610584575b50505050509050935093509350509193909250565b6060600180548060200260200160405190810160405280929190818152602001828054801561060d57602002820191905f5260205f20905b81546001600160a01b031681526001909101906020018083116105ef575b5050505050905090565b6001600160a01b0382165f8181526020818152604091829020805460ff191685151590811790915591519182527ff93f9a76c1bf3444d22400a00cb9fe990e6abe9dbb333fda48859cfee864543d910160405180910390a25050565b6001600160a01b0381165f9081526003602052604081205490819003610697575050565b60015481811461072b575f60016106ae8184610a17565b815481106106be576106be6109b8565b5f918252602090912001546001600160a01b031690508060016106e18186610a17565b815481106106f1576106f16109b8565b5f91825260208083209190910180546001600160a01b0319166001600160a01b039485161790559290911681526003909152604090208290555b600180548061073c5761073c610a3c565b5f828152602080822083015f1990810180546001600160a01b03191690559092019092556001600160a01b0385168083526003825260408084208490556002909252818320805460ff19169055905190917f8359db0e0ede7e01b872d6e73339fced87316416e6dcd01ac6b6e7cd1c18981291a2505050565b6001600160a01b0381165f9081526002602052604090205460ff16156107d85750565b6001600160a01b0381165f818152600260209081526040808320805460ff19166001908117909155805480820182557fb10e2d527612073b26eecdfd717e6a320cf44b4afac2b0732d9fcbe2b7fa0cf60180546001600160a01b0319168617905554600390925280832091909155517f7af2a0f31d9bbb5efa45898944ae09cbd319f474919100459be74afc3aa73fe69190a250565b80356001600160a01b0381168114610884575f80fd5b919050565b5f60208284031215610899575f80fd5b6108a28261086e565b9392505050565b5f80602083850312156108ba575f80fd5b823567ffffffffffffffff808211156108d1575f80fd5b818501915085601f8301126108e4575f80fd5b8135818111156108f2575f80fd5b8660208260051b8501011115610906575f80fd5b60209290920196919550909350505050565b5f60208284031215610928575f80fd5b5035919050565b5f815180845260208085019450602084015f5b838110156109675781516001600160a01b031687529582019590820190600101610942565b509495945050505050565b6001600160a01b038416815282151560208201526060604082018190525f9061099d9083018461092f565b95945050505050565b602081525f6108a2602083018461092f565b634e487b7160e01b5f52603260045260245ffd5b60208082528181018390525f908460408401835b86811015610a0c576001600160a01b036109f98461086e565b16825291830191908301906001016109e0565b509695505050505050565b81810381811115610a3657634e487b7160e01b5f52601160045260245ffd5b92915050565b634e487b7160e01b5f52603160045260245ffdfea2646970667358221220e5910a7ba0499254d86d08af96e22118b9dd0c335c069188fc81eecca9d6dc6764736f6c63430008190033","linkReferences":{}},"methodIdentifiers":{"BAUTI()":"b93e4bd5","JERRYTHEKID()":"583b2b4f","addRekt(address[])":"b9345e67","addWhitelisted(address)":"10154bad","executeRemoval(uint256)":"5be742ed","getProposal(uint256)":"c7f758a8","isRekt()":"e611d9ec","isWhitelisted(address)":"3af32abf","proposalCount()":"da35c664","proposeRemoval(address[])":"56243f8c","removeWhitelisted(address)":"291d9549"},"id":19}